:060000000A128A11FE2E17
:100DDA0041344E344F344B3448342D344134553435
:100DEA0054344F344D344134543449344F344E34EE
:100DFA00003483133130FD000630FE00ED30FF0071
:100E0A00203084000A128A1114270A128A118301D7
:100E1A000A128A11762F7E088A007F0882000A1237
:100E2A008A1110270A128A118000840A04087D0692
:100E3A0003190034FF0A0319FE0A142F70088312DB
:100E4A000313860072182A2F2E2F831203130614F7
:100E5A00312F83120313061086142130F5007630E1
:100E6A00F400F40B362FF50B362F00008312031310
:100E7A0086102130F5007630F400F40B422FF50B82
:100E8A00422F00007008F40003300310F40DFF3EF7
:100E9A00031D4A2F0310740D831203138600721860
:100EAA00572F5B2F8312031306145E2F831203132B
:100EBA00061086142130F5007630F400F40B632F07
:100ECA00F50B632F00008312031386102130F500FF
:100EDA007630F400F40B6F2FF50B6F2F0000752F8F
:100EEA0008008316031307108613061386120612C8
:100EFA008610061006158312031307100230F0003D
:100F0A000030F1000030F2000030F3000A128A11BA
:100F1A0023270A128A110130F0000030F100003054
:100F2A00F2000030F3000A128A1123270A128A11EA
:100F3A000C30F0000030F1000030F2000030F30015
:100F4A000A128A1123270A128A112830F000003067
:100F5A00F1000030F2000030F3000A128A11232750
:100F6A000A128A118030F0000030F1000030F200DD
:100F7A000030F3000A128A1123270A128A11F80193
:100F8A00F901E22F7808203E840083130008F60056
:100F9A00F7017608F0007708F1000130F20000301E
:100FAA00F3000A128A1123270A128A110130F8075C
:100FBA000318F90A0030F907E22F7808203E840066
:100FCA0083138008031DEA2FEB2FC72F8312031305
:100FDA00061DF02FF12FB72FF32FF32F0619F62F37
:100FEA00F72FF32FF82F01308706B72FB72FB72F18
:060FFA000A128A11002812
:02400E003AFF77
:00000001FF
